S01700005369676E616C47656E657261746F722E7372656308
S11300000C9434000C9451000C94F4000C945100A2
S11300100C9451000C9451000C9451000C94510018
S11300200C9451000C9451000C9451000C94B700A2
S11300300C9451000C9451000C9451000C945100F8
S11300400C9451000C9451000C9451000C945100E8
S11300500C9451000C9451000C9451000C945100D8
S11300600C9451000C94510011241FBECFEFD8E022
S1130070DEBFCDBF11E0A0E0B1E0E6EEF2E002C0E9
S113008005900D92A038B107D9F721E0A0E8B1E0BE
S113009001C01D92A238B207E1F70E940D010C9431
S11300A071010C9400008C33910510F48CE390E002
S11300B089392AE3920710F088E99AE3A0E0B0E0D6
S11300C0880F991FAA1FBB1F880F991FAA1FBB1F48
S11300D0880F991FAA1FBB1F880F991FAA1FBB1F38
S11300E09C01AD01220F331F441F551F220F331FE4
S11300F0441F551F60E072E18AE790E00E944001CE
S1130100211531054105510521F421E030E040E09D
S113011050E02115310581E04807510520F02FEF0B
S11301203FEF40E050E0215031098FB7F89430930D
S11301308900209388008FBF7894089582E4809387
S11301407C00EAE7F0E086E8808380818E7F80830C
S11301500895EAE7F0E080818064808380917A00EA
S113016086FDFCCF809178009091790008951F92CC
S11301700F920FB60F9211248F939F93EF93FF93D7
S113018080918101882319F0813041F00EC0E09103
S11301908001F0E0E05CFE4F80810DC0E0918001C1
S11301A0F0E0E05CFE4F808106C0E0918001F0E069
S11301B0E050FF4F808195B1907C8F73892B85B976
S11301C0809180018F5F80938001809180018034D1
S11301D010F010928001FF91EF919F918F910F90F9
S11301E00FBE0F901F9018951F920F920FB60F928B
S11301F011248F93809181018F5F8093810180917D
S11302008101833010F010928101109280018F914E
S11302100F900FBE0F901F90189584B18F6384B90F
S113022085B78F7E85BF8AB1877F8AB98BB1886095
S11302308BB91092800089E08093810088EE93E06E
S11302400E94530082E080936F0098E090936900CD
S11302508DBB0E949E000E94A9009C01ACE5BAE3FC
S11302600E9462012FEF33E040E050E00E94400121
S1130270DA01C901CC96A11DB11D0E945300EBCF38
S1130280A1E21A2EAA1BBB1BFD010DC0AA1FBB1F96
S1130290EE1FFF1FA217B307E407F50720F0A21B08
S11302A0B30BE40BF50B661F771F881F991F1A9475
S11302B069F760957095809590959B01AC01BD019F
S11302C0CF010895A29FB001B39FC001A39F700DF9
S11302D0811D1124911DB29F700D811D1124911D4A
S10902E00895F894FFCF1D
S11302E6000102030405060708090A0B0C0D0E0F8C
S11302F6101112131415161718191A1B1C1D1E1F7C
S1130306202122232425262728292A2B2C2D2E2F6B
S1130316303132333435363738393A3B3C3D3E3F5B
S11303263F3F3F3F3F3F3F3F3F3F3F3F3F3F3F3FD3
S11303363F3F3F3F3F3F3F3F3F3F3F3F3F3F3F3FC3
S113034600000000000000000000000000000000A3
S11303560000000000000000000000000000000093
S9030000FC
