:100000000C9434000C94EF000C9451000C945100AB
:100010000C9451000C9451000C9451000C9451001C
:100020000C9451000C9451000C9451000C94B200AB
:100030000C9451000C9451000C9451000C945100FC
:100040000C9451000C9451000C9451000C945100EC
:100050000C9451000C9451000C9451000C945100DC
:100060000C9451000C94510011241FBECFEFD8E026
:10007000DEBFCDBF11E0A0E0B1E0E4EDF2E002C0F0
:1000800005900D92A03CB107D9F721E0A0ECB1E0BA
:1000900001C01D92A23CB207E1F70E9406010C9438
:1000A00068010C9400008C33910510F48CE390E00F
:1000B00089392AE3920710F088E99AE3A0E0B0E0DA
:1000C000880F991FAA1FBB1F880F991FAA1FBB1F4C
:1000D000880F991FAA1FBB1F880F991FAA1FBB1F3C
:1000E0009C01AD01220F331F441F551F220F331FE8
:1000F000441F551F60E074E284EF90E00E943701D6
:10010000211531054105510521F421E030E040E0A1
:1001100050E02115310581E04807510520F02FEF0F
:100120003FEF40E050E0215031098FB7F894309311
:100130008900209388008FBF089582E480937C001B
:1001400087E880937A000895EAE7F0E08081806490
:10015000808380917A0086FDFCCF80917800909119
:10016000790008951F920F920FB60F9211248F936A
:100170009F93EF93FF938091C101882319F0813001
:1001800041F00EC0E091C001F0E0E058FE4F8081E8
:100190000DC0E091C001F0E0E05CFE4F808106C040
:1001A000E091C001F0E0E050FF4F808195B1907C7C
:1001B0008F73892B85B98091C0018F5F8093C001B7
:1001C0008091C001803410F01092C001FF91EF9136
:1001D0009F918F910F900FBE0F901F9018951F92B7
:1001E0000F920FB60F9211248F938091C1018F5FF0
:1001F0008093C1018091C101833010F01092C10140
:100200008F910F900FBE0F901F90189584B18F6340
:1002100084B98AB18B7F8AB98BB184608BB9109213
:10022000800089E08093810088EE93E00E94530073
:1002300082E080936F008093690081E08DBB0E9413
:100240009D0078940E94A4009C01ACE5BAE30E9452
:1002500059012FEF33E040E050E00E943701DA010E
:10026000C901CC96A11DB11D0E945300EBCFA1E2A4
:100270001A2EAA1BBB1BFD010DC0AA1FBB1FEE1F20
:10028000FF1FA217B307E407F50720F0A21BB30B6B
:10029000E40BF50B661F771F881F991F1A9469F7E7
:1002A00060957095809590959B01AC01BD01CF0143
:1002B0000895A29FB001B39FC001A39F700D811D3F
:1002C0001124911DB29F700D811D1124911D08955F
:0402D000F894FFCFD0
:1002D400000102030405060708090A0B0C0D0E0FA2
:1002E400101112131415161718191A1B1C1D1E1F92
:1002F400202122232425262728292A2B2C2D2E2F82
:10030400303132333435363738393A3B3C3D3E3F71
:100314003F3F3F3F3F3F3F3F3F3F3F3F3F3F3F3FE9
:100324003F3F3F3F3F3F3F3F3F3F3F3F3F3F3F3FD9
:1003340000000000000000000000000000000000B9
:1003440000000000000000000000000000000000A9
:10035400202326292C2E313336383A3B3D3E3E3F6E
:100364003F3F3E3E3D3B3A383633312E2C2926233F
:10037400201C191613110E0C0907050402010100B3
:100384000000010102040507090C0E111316191CC3
:00000001FF
